:100000000C9486290C94A3290C94A3290C94A3295D
:100010000C94A3290C94A3290C94A3290C94A32930
:100020000C94A3290C94A3290C94A3290C94A32920
:100030000C94A3290C94A3290C94832F0C94A3292A
:100040000C94A3290C94A3290C94A3290C94A32900
:100050000C94A3290C94A3290C94A3290C94A329F0
:100060000C94A3290C94A32920202020CEEAF0F39D
:10007000E6EDEEF1F2E80020202020C7E0EAF0E013
:10008000F8E5EDEDFBE520EFF0FFECEEF3E3EEEB52
:10009000FCEDE8EAE80020202020C2FBE2EEE420AC
:1000A000EBE8EDE8E90020202020C2FBE2EEE420AE
:1000B000F2EEF7E5EA0036783857483A2000313258
:1000C0007831363A200031307831343A20003878AF
:1000D0003136673A200038783136743A2000387863
:1000E00031366E3A2000387831363A2020003878A0
:1000F000386E3A003878383A2000202020D8F0E8CE
:10010000F4F2203678383A2030313233343536370D
:100110003839C0C1C2C3C4C5C6C7C8C9CACBCCCD93
:10012000CECFD0D1D2D3D4D5D6D7D8D9DADBDCDD77
:10013000DEDFE0E1E2E3E4E5E6E7E8E9EAEBECED67
:10014000EEEFF0F2F3F4F5F6F7F8F9FAFBFCFDFE4A
:10015000FF00202020D8F0E8F4F2203678383A204A
:1001600030313233343536373839C0C1C2C3C4C5F3
:10017000C6C7C8C9CACBCCCDCECFD0D1D2D3D4D5A7
:10018000D6D7D8D9DADBDCDDDEDFE0E1E2E3E4E597
:10019000E6E7E8E9EAEBECEDEEEFF0F2F3F4F5F682
:1001A000F7F8F9FAFBFCFDFEFF000C100000000060
:1001B000000000000000000000000000000000003F
:1001C0000000000000000000000000007C00FF3381
:1001D000FF337C0000000000000000000000000071
:1001E00000003C003C00000000003C003C0000001F
:1001F0000000000000000002101E901FF0037E02AD
:100200001E1E901FF0037E021E0010000000000062
:100210007804FC0CCC0CFF3FFF3FCC0CCC0F8807C4
:1002200000000000000000303838381C380E00078D
:100230008003C001E038703838381C00000000002E
:10024000001FB83FFC31C621E2373E1E1C1C0036A1
:1002500000220000000000000000000027003F0016
:100260001F0000000000000000000000000000006F
:100270000000F003FC0FFE1F0738012001200000E2
:1002800000000000000000000000012001200738ED
:10029000FE1FFC0FF0030000000000000000000043
:1002A000980CB80EE003F80FF80FE003B80E980CA6
:1002B0000000000000000000800180018001F00FBC
:1002C000F00F8001800180010000000000000000AC
:1002D0000000000000B800F80078000000000000F6
:1002E000000000000000000080018001800180010A
:1002F00080018001800180010000000000000000FA
:100300000000000000380038003800000000000045
:100310000000000000000018001C000E0007800311
:10032000C001E000700038001C000E000000F8075B
:10033000FE1F061E03338331C330633033301E1873
:10034000FE1FF8070000000000000C300C300E30DB
:10035000FF3FFF3F003000300030000000001C3045
:100360001E38073C033E03378333C331E330773015
:100370003E301C3000000C0C0E1C0738C330C3305C
:10038000C330C330C330E7397E1F3C0E0000C003CA
:10039000E003700338031C030E030703FF3FFF3F16
:1003A0000003000300003F0C7F1C633863306330A0
:1003B000633063306330E338C31F830F0000C00F26
:1003C000F01FF839DC30CE30C730C330C330C3390A
:1003D000801F000F00000300030003000330033CF4
:1003E000030FC303F3003F000F0003000000000FE2
:1003F000BC1FFE39E730C330C330C330E730FE39AD
:10040000BC1F000F00003C007E00E730C330C3304B
:10041000C338C31CC30EE707FE03FC000000000046
:1004200000000000701C701C701C00000000000028
:10043000000000000000000000000000709C70FC44
:10044000707C0000000000000000000000000000C0
:10045000C000E001F00338071C0E0E1C0738033003
:1004600000000000000000006006600660066006F4
:10047000600660066006600660060000000000007E
:10048000033007380E1C1C0E3807F003E001C000D3
:100490000000000000001C001E000700030083375E
:1004A000C337E30077003E001C0000000000F80F97
:1004B000FE1F0718F333FB371B36FB37FB370736B6
:1004C000FE03F80100000038003FE007FC061F06AD
:1004D0001F06FC06E007003F003800000000FF3F59
:1004E000FF3FC330C330C330C330E730FE39BC1FD9
:1004F000000F00000000F003FC0F0E1C0738033053
:100500000330033007380E1C0C0C00000000FF3FC6
:10051000FF3F033003300330033007380E1CFC0F5D
:10052000F00300000000FF3FFF3FC330C330C33083
:10053000C330C330C3300330033000000000FF3F3E
:10054000FF3FC300C300C300C300C300C3000300D8
:10055000030000000000F003FC0F0E1C07380330FE
:10056000C330C330C330C73FC63F00000000FF3F69
:10057000FF3FC000C000C000C000C000C000FF3F7F
:10058000FF3F000000000000000003300330FF3F89
:10059000FF3F033003300000000000000000000EA9
:1005A000001E003800300030003000300038FF1FDF
:1005B000FF0700000000FF3FFF3FC000E001F00325
:1005C00038071C0E0E1C0738033000000000FF3FE8
:1005D000FF3F00300030003000300030003000308D
:1005E000003000000000FF3FFF3F1E007800E001E8
:1005F000E00178001E00FF3FFF3F00000000FF3FCA
:10060000FF3F0E003800F000C0030007001CFF3F52
:10061000FF3F00000000F003FC0F0E1C0738033002
:10062000033007380E1CFC0FF00300000000FF3FF2
:10063000FF3F83018301830183018301C701FE0022
:100640007C0000000000F003FC0F0E1C0738033094
:100650000336073E0E1CFC3FF03300000000FF3F56
:10066000FF3F8301830183038307830FC71DFE3888
:100670007C30000000003C0C7E1CE738C330C330E7
:10068000C330C330C7398E1F0C0F000000000000BC
:10069000030003000300FF3FFF3F030003000300CC
:1006A000000000000000FF07FF1F0038003000308E
:1006B000003000300038FF1FFF0700000000070077
:1006C0003F00F801C00F003E003EC00FF8013F00A0
:1006D000070000000000FF3FFF3F001C00068003F2
:1006E00080030006001CFF3FFF3F000000000330B6
:1006F0000F3C1C0E3003E001E00130031C0E0F3CE8
:1007000003300000000003000F003C00F000C03F79
:10071000C03FF0003C000F00030000000000033069
:10072000033C033E0333C331E33033301F300F301B
:1007300003300000000000000000FF3FFF3F0330D7
:1007400003300330033000000000000000000E0002
:100750001C0038007000E000C00180030007000E9C
:10076000001C0018000000000000033003300330BC
:100770000330FF3FFF3F000000000000000060006A
:10078000700038001C000E0007000E001C0038002E
:1007900070006000000000C000C000C000C000C0C9
:1007A00000C000C000C000C000C000C000000000C9
:1007B0000000000000003E007E004E00000000002F
:1007C000000000000000001C403E603360336033D6
:1007D000603360336033E03FC03F00000000FF3F04
:1007E000FF3FC0306030603060306030E038C01FA4
:1007F000800F00000000800FC01FE03860306030C4
:10080000603060306030C018800800000000800F49
:10081000C01FE038603060306030E030C030FF3FF3
:10082000FF3F00000000800FC01FE03B60336033DB
:10083000603360336033C013800100000000C000EB
:10084000C000FC3FFE3FC700C300C3000300000020
:100850000000000000008003C0C7E0CE60CC60CC88
:1008600060CC60CC60E6E07FE03F00000000FF3F2E
:10087000FF3FC000600060006000E000C03F803FBC
:100880000000000000000000000000306030EC3F7D
:10089000EC3F0030003000000000000000000000CD
:1008A0000000006000E000C060C0ECFFEC7F0000D2
:1008B0000000000000000000FF3FFF3F0003800732
:1008C000C00FE01C60380030000000000000000095
:1008D000000000300330FF3FFF3F003000300000D9
:1008E000000000000000E03FC03FE000E000C03F2B
:1008F000C03FE000E000C03F803F0000000000007B
:10090000E03FE03F6000600060006000E000C03F4A
:10091000803F00000000800FC01FE0386030603072
:1009200060306030E038C01F800F00000000E0FF42
:10093000E0FF600C6018601860186018E01CC00FC1
:100940008007000000008007C00FE01C60186018DE
:1009500060186018600CE0FFE0FF0000000000007D
:10096000E03FE03FC0006000600060006000E00029
:10097000C00000000000C011E0336033603360331A
:100980006033603F401E0000000000000000600077
:100990006000FE1FFE3F60306030603000300000BD
:1009A000000000000000E00FE01F003800300030C1
:1009B000003000300018E03FE03F00000000600021
:1009C000E0018007001E00380038001E8007E001AB
:1009D000600000000000E007E01F0038001CE00F8E
:1009E000E00F001C0038E01FE0070000000060304E
:1009F000E038C01D800F0007800FC01DE038603058
:100A000000000000000000006000E08180E7007E40
:100A1000001E8007E0016000000000000000603060
:100A20006038603C60366033E031E0306030203068
:100A300000000000000000008000C001FC1F7E3F9D
:100A40000770036003600360000000000000000006
:100A5000000000000000FF3FFF3F0000000000001A
:100A600000000000000000000360036003600770E6
:100A70007E3FFC1FC001800000000000000010004D
:100A800018000C0004000C001800100018000C00E6
:100A9000040000000000000F800FC00C600C300C40
:100AA000300C600CC00C800F000F00000000F03F05
:100AB000FC3F0E0307030303030303030303FF3F8A
:100AC000FF3F00000000FF3FFF3FC330C330C33093
:100AD000C330C330C339831F030F00000000FF3F42
:100AE000FF3FC330C330C330C330E730FE39BC1FD3
:100AF000000F00000000FF3FFF3F03000300030062
:100B000003000300030003000300000000F0F0FFF7
:100B1000FC3F0E3007300330033003300330FF3F1B
:100B2000FFFF00F00000FF3FFF3FC330C330C33082
:100B3000C330C330C3300330033000000F3C3E1FCE
:100B4000F807E001C000FF3FFF3FC000E001F807E9
:100B50001E1F073C00000C0C0E1C0738C330C330AE
:100B6000C330C330C330E7397E1F3C0E0000FF3F67
:100B7000FF3F001C0007C003F00038000E00FF3FDD
:100B8000FF3F00000000FF3FFF3F001C0007C603BF
:100B9000F30038000E00FF3FFF3F00000000FF3F62
:100BA000FF3FC000E001F00338071C0E0E1C0738A1
:100BB000033000000000F03FFC3F0E000700030080
:100BC000030003000300FF3FFF3F00000000FF3F62
:100BD000FF3F1E007800E001E00178001E00FF3FAB
:100BE000FF3F00000000FF3FFF3FC000C000C0000B
:100BF000C000C000C000FF3FFF3F00000000F00346
:100C0000FC0F0E1C07380330033007380E1CFC0F96
:100C1000F00300000000FF3FFF3F0300030003005C
:100C2000030003000300FF3FFF3F00000000FF3F01
:100C3000FF3F83018301830183018301C701FE001C
:100C40007C0000000000F003FC0F0E1C073803308E
:100C50000330033007380E1C0C0C000000000000AD
:100C6000030003000300FF3FFF3F030003000300F6
:100C70000000000000007F18FF38C030C030C030D6
:100C8000C030C030C038FF1FFF0700000000F8036D
:100C9000FC070C060C06FF3FFF3F0C060C06FC078A
:100CA000F8030000000003300F3C1C0E3003E0018D
:100CB000E00130031C0E0F3C033000000000FF3F3A
:100CC000FF3F00300030003000300030FF3FFFFFBA
:100CD00000F0000000007F00FF00C000C000C00066
:100CE000C000C000C000FF3FFF3F00000000FF3F0A
:100CF000FF3F00300030FF3FFF3F00300030FF3F3C
:100D0000FF3F00000000FF3FFF3F00300030FF3F8B
:100D1000FF3F00300030FF3FFFFF00F00F000F00EB
:100D20000300FF3FFF3F603060306030E038C01F9D
:100D3000800F00000000FF3FFF3F60306030E03870
:100D4000C01F800F0000FF3FFF3F00000000FF3F7B
:100D5000FF3F60306030603060306030E038C01F8E
:100D6000800F000000000C0C0E1C0738C330C3308D
:100D7000C330C738CE1CFC0FF0030000FF3FFF3F1D
:100D8000C000F003FC0F0E1C0738033007380E1CA0
:100D9000FC0FF00300007C30FE38C71D830F830773
:100DA000830383018301FF3FFF3F00000000001C1D
:100DB000403E603360336033603360336033E03F24
:100DC000C03F00000000F01FF83F9831D830D83005
:100DD000D830D830D8398C1F000F00000000000038
:100DE000E03FE03F6032603260326032E03FC01D81
:100DF0000000000000000000E03FE03F60006000F5
:100E0000600060006000600000000000000000F072
:100E100080FFC03F6030603060306030E03FE0FF16
:100E200000F000000000800FC01FE03B6033603323
:100E3000603360336033C013800100006030E038FD
:100E4000C01F80070003E03FE03F00038007C01F92
:100E5000E0386030000000008008C0186030603268
:100E600060326032C01F800D0000000000000000F2
:100E7000E03FE03F0018000C000600038001E03F67
:100E8000E03F000000000000E03FE03F0018000CE1
:100E900018060C038001E03FE03F00000000000066
:100EA000E03FE03F00038007C00FE01C60380030E7
:100EB0000000000000000000803FC03F60006000B4
:100EC00060006000E03FE03F000000000000E03F05
:100ED000E03FE000C00100030003C001E000E03F8C
:100EE000E03F000000000000E03FE03F0006000699
:100EF000000600060006E03FE03F00000000800F13
:100F0000C01FE0386030603060306030E038C01FB3
:100F1000800F000000000000E03FE03F6000600044
:100F2000600060006000E03FE03F00000000E0FF84
:100F3000E0FF600C6018601860186018E01CC00FBB
:100F4000800700000000800FC01FE0386030603074
:100F5000603060306030C018800800000000000081
:100F6000600060006000E03FE03F60006000600003
:100F700000000000000000006000E08180E7007ECB
:100F8000001E8007E0016000000000000000801FDC
:100F9000C03FC030C030E0FFE0FFC030C030C03FD5
:100FA000801F000000006030E038C01D800F000787
:100FB000800FC01DE038603000000000000000001D
:100FC000E03FE03F0030003000300030E03FE0FF25
:100FD00000F0000000000000E003E007000600064B
:100FE00000060006E03FE03F000000000000E03F98
:100FF000E03F00300030E03FE03F00300030E03FB5
:10100000E03F00000000E03FE03F00300030E03F04
:10101000E03F00300030E03FE0FF00F00000E00083
:10102000E0006000E03FE03F003300330033003F6A
:10103000001E00000000E03FE03F003300330033BB
:10104000003F001E0000E03FE03F00000000000005
:10105000E03FE03F0033003300330033003F001E29
:101060000000000000008008C0186030603060336D
:101070006033603BC01F800F000000000000E03FB5
:10108000E03F0003800FC01FE0386030E038C01F31
:10109000800F000000000000C031E03B601E600EC9
:1010A00060066002E03FE03F000000000A0E000022
:1010B0000000000000000000000000000000000030
:1010C00000000000000000003C00FF0DFF0D3C0090
:1010D000000000000000000000001C001C000000D8
:1010E0001C001C00000000000000000080019807A8
:1010F000F807FE019E07F807FE019E011800000098
:101100003C037E076606FF0FFF0F6606EE07CC0363
:1011100000000000000C180E18078003C001E0005A
:1011200070063806180000008007D80FFC0CE60C8B
:10113000E60D3E079C0F800D00000000000000003F
:1011400000000B000700000000000000000000008D
:1011500000000000F001FC07060C01100000000078
:10116000000000000000000000000110060CFC0759
:10117000F0010000000000001001B001E000F803E1
:10118000F803E000B001100100000000C000C00042
:10119000C000F807F807C000C000C0000000000051
:1011A000000000000000002C001C000000000000F7
:1011B00000000000C000C000C000C000C000C000AF
:1011C000C000C00000000000000000000000000C93
:1011D000000C0000000000000000000000060007F6
:1011E0008003C001E000700038001C000C0000000B
:1011F000FC03FE07870FE30C730C1F0EFE07FC03B6
:10120000000000000000040C060CFF0FFF0F000C94
:10121000000C0000000000000C0F8E0F870DC30DA6
:10122000C30CE70C7E0C3C0C00000000030303071A
:10123000030E330C3B0C7F0EEF07C30300000000CE
:10124000E001F001B8019C018E018701FF0FFF0F43
:10125000000000003F033F07330E330C330C730EC6
:10126000E307C30300000000FC03FE07370E330C46
:10127000330C730EE307C0030000000003000300FB
:10128000030E830FE303FB003F000F00000000008C
:101290009C03FE07F70E630C630CF70EFE079C031E
:1012A000000000003C007E0CE70CC30CC30CC70E12
:1012B000FE07FC03000000000000000030063006BE
:1012C000000000000000000000000000000000001E
:1012D0000000602C601C0000000000000000000006
:1012E00000004000E000F001B8031C070C060000FD
:1012F00000000000000060036003600360036003FF
:10130000600360030000000000000C061C07B80327
:10131000F001E00040000000000000000E000F009F
:101320000300C30DE30D73003F001E00000000002A
:10133000F8030C06F60DFA0B1A0BFA0BF60B0C0B56
:10134000F8000000800FF00F7C030F030F037C03F5
:10135000F00F800F00000000FF0FFF0F630C630C05
:10136000630CF70EFE079C0300000000FC03FE0761
:10137000070E030C030C070E0E070C030000000001
:10138000FF0FFF0F030C030C030C070EFE07FC03FB
:1013900000000000FF0FFF0F630C630C630C630C75
:1013A000030C030C00000000FF0FFF0F630063003D
:1013B000630063000300030000000000FC03FE075D
:1013C000070E030CC30CC70ECE07CC0300000000B1
:1013D000FF0FFF0F6000600060006000FF0FFF0F55
:1013E000000000000000030C030CFF0FFF0F030CB4
:1013F000030C00000000000000030007000E000CBA
:10140000000C000EFF07FF0300000000FF0FFF0F9E
:101410006000F000F8019C030F0F070E00000000B1
:10142000FF0FFF0F000C000C000C000C000C000C58
:1014300000000000FF0FFF0F1C00F000F0001C0078
:10144000FF0FFF0F00000000FF0FFF0F1C007800D0
:10145000E0018003FF0FFF0F00000000FC03FE0708
:10146000070E030C030C070EFE07FC030000000030
:10147000FF0FFF0FC300C300C300E7007E003C0066
:1014800000000000FC03FE07070E830D830F070713
:10149000FE0FFC0D00000000FF0FFF0FC300C30193
:1014A000C303E7077E0E3C0C000000001C033E0750
:1014B000770E630C630CE70ECE078C030000000070
:1014C000030003000300FF0FFF0F030003000300EE
:1014D00000000000FF03FF07000E000C000C000ED0
:1014E000FF07FF03000000001F00FF00E003000FE4
:1014F000000FE003FF001F0000000000FF0FFF0FC0
:101500008003F000F0008003FF0FFF0F00000000D9
:10151000030C0F0F9C03F000F0009C030F0F030C53
:101520000000000007001F007800E00FE00F7800C7
:101530001F00070000000000030F830FC30DE30C22
:10154000730C3B0C1F0C0F0C000000000000FF0F81
:10155000FF0F030C030C030C00000000000006004A
:101560000E001C0038007000E000C001800300077E
:10157000000600000000030C030C030CFF0FFF0F1C
:101580000000000000000000300038001C000E00C9
:1015900007000E001C003800300000300030003022
:1015A00000300030003000300030003000300000EB
:1015B00000000000000007000B0000000000000019
:1015C000000000000007B00FB00DB00DB00DB00D61
:1015D000F00FE00F00000000FF0FFF0F300C300C89
:1015E000300C700EE007C00300000000C003E007ED
:1015F000700E300C300C700E6006400200000000CF
:10160000C003E007700E300C300C300CFF0FFF0FE2
:1016100000000000E007F00FB00DB00DB00DB00DF0
:10162000F00DE005000000006000FE0FFF0F6300FA
:10163000630063000300000000000000C001E0330D
:101640007037303630363036F01FF00F00000000B3
:10165000FF0FFF0F6000300030003000F00FE00F90
:10166000000000000000000C300CF60FF60F000C1C
:10167000000C0000000000000000001800380030DE
:101680003030F63FF61F000000000000FF0FFF0F94
:101690008001C003E007700E300C00000000000065
:1016A0000000000C030CFF0FFF0F000C000C0000EB
:1016B00000000000F00FF00F6000F00FF00F60006E
:1016C000F00FE00F00000000F00FF00F600030009E
:1016D00030007000E00FC00F00000000C003E00702
:1016E000700E300C300C700EE007C00300000000DC
:1016F000F03FF03F3006300630067007E003C001CF
:1017000000000000C001E00370073006300630061C
:10171000F03FF03F00000000F00FF00F60003000DD
:10172000300030007000600000000000E004F00DA8
:10173000B00DB00DB00DB00DB00F200700000000CF
:101740003000FE07FE0F300C300C300C000C000097
:1017500000000000F003F007000E000C000C000673
:10176000F00FF00F000000003000F000C003000F89
:10177000000FC003F000300000000000F001F00F87
:10178000000EF003F003000EF00FF0010000000067
:10179000300C700EE007C003C003E007700E300C81
:1017A000000000007000F031C03B001F000FC003BC
:1017B000F001700000000000300C300E300FB00F50
:1017C000F00DF00C700C300C000000000000C000A8
:1017D000FE1F3F3F03300330000000000000000008
:1017E000000000000000FF0FFF0F000000000000DD
:1017F0000000000000000000033003303F3FFE1FE8
:10180000C0000000000006000C000E0006000E00E4
:101810000C000E0006000E000C0000008007E00720
:10182000F0063C063C06F006E007800700000000DA
:10183000F80FFC0F8E01870183018301FF0FFF0F5B
:1018400000000000FF0FFF0F330C330C330C730E3E
:10185000E307C30300000000FF0FFF0F330C330C3E
:101860003F0C7E0EEC07C00300000000FF0FFF0FCF
:101870000300030003000300030003000000003C1A
:10188000F83FFE0F0F0C030C030C030CFF0FFF3F80
:10189000003C0000FF0FFF0F630C630C630C630C34
:1018A000030C030C000000009F0FFF0F6000FF0FF0
:1018B000FF0F6000FF0F9F0F000000000C030E07DA
:1018C000070E630C630C670EFE079C03000000000C
:1018D000FF0FFF0F8007E00178001E00FF0FFF0FD2
:1018E00000000000FF0FFF0F8007E30179001E00DA
:1018F000FF0FFF0F00000000FF0FFF0F7000F80048
:10190000DC018E03070F030E00000000F00FFE0F36
:101910000F00030003000300FF0FFF0F0000000093
:10192000FF0FFF0F3C00F001F0013C00FF0FFF0F25
:1019300000000000FF0FFF0F60006000600060000B
:10194000FF0FFF0F00000000FC03FE07070E030C53
:10195000030C070EFE07FC0300000000FF0FFF0F43
:101960000300030003000300FF0FFF0F000000004F
:10197000FF0FFF0FC300C300C300E7007E003C0061
:1019800000000000FC03FE07070E030C030C070E0B
:101990000E070C0300000000030003000300FF0F0C
:1019A000FF0F030003000300000000001F033F07B8
:1019B000700E600C600C600EFF07FF03000000005B
:1019C000F801FC030C03FF0FFF0F0C03FC03F801ED
:1019D00000000000030C0F0F9C03F000F0009C03BC
:1019E0000F0F030C00000000FF0FFF0F000C000C96
:1019F000000CFF0FFF3F003C000000007F00FF00D5
:101A0000C000C000C000C000FF0FFF0F00000000BA
:101A1000FF0FFF0F000CFF0FFF0F000CFF0FFF0F5A
:101A200000000000FF0FFF0F000CFF0FFF0F000C66
:101A3000FF0FFF3F003C03000300FF0FFF0F300CC0
:101A4000300C700EE007C00300000000FF0FFF0F16
:101A5000180CF80FF0070000FF0FFF0F0000000048
:101A6000FF0FFF0F300C300C300C700EE007C0037E
:101A7000000000000C030E07670E630C630C670E7A
:101A8000FE07FC0300000000FF0FFF0F6000FE07D1
:101A9000FF0F030CFF0FFE07000000003C0C7E0E42
:101AA000E707C303C301C300FF0FFF0F00000000DF
:101AB0000007B00FB00DB00DB00DB00DF00FE00F7E
:101AC00000000000F803FC076E0E660C660C660E44
:101AD000C707830300000000F00FF00FB00DB00D3A
:101AE000B00DF00D600F000600000000F00FF00FC9
:101AF00030003000300030003000300000000000C6
:101B0000003CE03FF00F300C300C300CF00FF03F99
:101B1000003C0000E007F00FB00DB00DB00DB00DAF
:101B2000F00DE00400000000700EF00F8001F00FD7
:101B3000F00F8001F00F700E000000006006700EC4
:101B4000300CB00DB00DB00DF00F600600000000BD
:101B5000F00FF00F00078003C001E000F00FF00F5E
:101B600000000000F00FF00F00078C03CC01E00034
:101B7000F00FF00F00000000F00FF00F8001C00325
:101B8000E007700E300C000000000000C00FE00FF6
:101B90007000300030003000F00FF00F0000000047
:101BA000F00FF00FE00080038003E000F00FF00F73
:101BB00000000000F00FF00F800180018001800123
:101BC000F00FF00F00000000C003E007700E300CB3
:101BD000300C700EE007C00300000000F00FF00FA3
:101BE0003000300030003000F00FF00F0000000037
:101BF000F03FF03F3006300630067007E003C001CA
:101C000000000000C003E007700E300C300C700EB6
:101C10006006400200000000300030003000F00F8D
:101C2000F00F300030003000000000007000F03194
:101C3000C03B001F000FC003F00170000000000057
:101C4000E007F00F300CF83FF83F300CF00FE007E2
:101C500000000000300C700EE007C003C003E00776
:101C6000700E300C00000000F00FF00F000C000CA4
:101C7000000CF00FF03F003800000000F003F0030C
:101C80000003000300030003F00FF00F000000004A
:101C9000F00FF00F000CF00FF00F000CF00FF00F32
:101CA00000000000F00FF00F000CF00FF00F000C20
:101CB000F00FF03F003C30003000F00FF00FC00C90
:101CC000C00CC00CC00F800700000000F00FF00F28
:101CD000C00CC00F80070000F00FF00F00000000E4
:101CE000F00FF00FC00CC00CC00CC00D800F00072F
:101CF000000000006006700E300CB00DB00DB00D8D
:101D0000F00FE00700000000F00FF00F8001E00787
:101D1000F00F300CF00FE00700000000E00CF00EB8
:101D2000B007300330033003F00FF00F000008104D
:101D300000000000000000000000000000000000A3
:101D4000000000000000FE0DFC0D0000000000007F
:101D500000000E001C00000000000E001C0000002F
:101D60002002FC0FF80F200A2802F80FF81F2002AB
:101D70003006780CCC08FE3F8819180F300600009A
:101D8000300C300E000B8001D000700C300C0000C5
:101D90008007DC0F7C08E408BC05D80F401E00005B
:101DA000000000000E001C00000000000000000009
:101DB00000000000F003F8070C0C041800000000FD
:101DC0000000000006080C0CF807F00300000000FB
:101DD0008000A002F003C001C001E007A002800063
:101DE000000080008000F003E00780008000000019
:101DF000000000000000001E000E000000000000B7
:101E00008000800080008000800080008000000052
:101E1000000000000000000C000C000000000000AA
:101E2000000C000600038001C000600030001800B4
:101E30000000FC07FC0F44088408FC0FF80F0000AA
:101E4000000030001800FC0FFE1F00000000000022
:101E500000000C0E1C0F8409C4087C0C380800001C
:101E600000000C061C0C44086408FC0F980F0000CE
:101E70000000C000E000B0009800FC1FFE0F8000D2
:101E800000007C06FC0C24084408C40F840F0000EA
:101E90000000F007F80F4C084608C00F800F000044
:101EA00000000C001C00840FC41F7C003C000000DC
:101EB0000000BC07FC0F44088408FC0F780F0000EA
:101EC00000007C00FC008418840CFC07F803000070
:101ED0000000000000003006300600000000000096
:101EE000000000000000301E300E00000000000066
:101EF00000008000C00160033006180C08080000D4
:101F000020012001200120012001200120010000EA
:101F100000000808180C30066003C00180000000B3
:101F20003C001C000400C40DC41D7C0078000000AF
:101F3000F807F80F0808C80BC80BF80BF00B0000E7
:101F40000000F00FF80F86080C01F80FF01F0000DA
:101F50000408FC0FFC0F4408C408BC0F380F000035
:101F60000000FC03FC07040C04080C0C180E000015
:101F70000408FC0FFC0F04080C08F80FF00F000019
:101F80000408FC0FFC0F4408E4080C0E1C0C0000B5
:101F90000400FC0FFC0F4408C4000C001C000000EF
:101FA0000000FC03FC07040C84088C07980F000059
:101FB0000000FE0FFC0F40084400FC0FFC1F000057
:101FC000000000000400FC0FFC1F000000000000E7
:101FD00000000007000E00080408FC0FFC0F0000C2
:101FE0000000FE0FFC0F4008E400BC0F1C1F0000A7
:101FF0000008FE0FFC0F00080008000E000C000097
:10200000FE0FFC0F7008E0007400FC0FFC1F0000C6
:102010000000FE0FFC0F6008C400FC0FFC1F000056
:102020000000FC03FC07040C0C08F80FF00F000084
:102030000400FC0FFC0F84088400FC00F800000082
:102040000000FC03FC07040C0C38F87FF00F0000C4
:102050000408FC0FFC0FC400C4017C0F781E0000B4
:102060000000180E3C0C6408C4088C0F1C0700000C
:1020700004000C000C00FC0FFC1F0C001C000000F6
:102080000000FE03FC07000C0408FC0FFC0F00001E
:102090000000FE03FC07000C0418FC07FC03000012
:1020A000FE07FC0F001E80030406FC0FFC1F00004F
:1020B00000001E0FBC0F6008C400BC0F1C1F0000F6
:1020C00000003E007C00800FC41F7C003C0000002C
:1020D00000000C0F9C0FC40864083C0E1C0C000090
:1020E00000000000FC0FFC0F0408040800000000C2
:1020F000180030006000C000800100030006000CE2
:102100000000000004080408FC0FFC0F00000000A1
:1021100018000C000600030006000C001800000068
:10212000000800080008000800080008000800086F
:1021300000000000020006000C0008000000000083
:102140000000A007A00FA008A008E00FC00F00002B
:102150000000FE07FC0F20086008C00F800F000081
:102160000000E007E00F20082008600C400C000091
:102170000000E007E00F20084408FC0FFC0F0008F7
:102180000000E007E00F20092009E00DC00D00006D
:102190008000FC0FFC0F840804001C0038000000C5
:1021A0000000E047E06F20482048C07FE07F00004B
:1021B0000000FE0FFC0F20082000E00FC01F0000F1
:1021C000000000002000EE0FEC1F000000000000E7
:1021D00000000038007000402040EE7FEC7F0000DF
:1021E0000000FE0FFC0F0009A003E00E601C0000C1
:1021F000000000000000FE0FFC0F000800000000BF
:10220000E00FE00F6008C0016000E00FC01F000099
:102210000000E00FE00F20082000E00FC01F0000CA
:102220000000E007E00F20082008E00FC00F0000CA
:102230000000E07FE07F20486008C00F800F0000B2
:102240000000F007E00F00382078E00FE00F0000FA
:102250002000E00FC00F6008200060006000000058
:102260000000E004E00D20092009600F400E00008E
:1022700000002000FC07F80F2008000C000C0000F4
:102280000000F007E00F00082008E00FE00F00005A
:102290000000F003E007000C2018E00FE00700004A
:1022A000F007E00F001E80032006E00FE01F000093
:1022B0000000700CE00E80092003E00E601C00009E
:1022C0000000F003E007000C2068E03FE01F000082
:1022D0000000200C600E200BA009E00C600800003C
:1022E000000000008000F80F7C1F06300000000096
:1022F000000000000000BE0F7C1F00000000000076
:102300000000000006307C1FF80F80000000000075
:102310008000C0006000C0008001C00040000000DC
:102320008007C007600430046004C0078007000015
:102330000400FC07FC0F84008C00F80FF00F000075
:102340000400FC0FFC0F44084408CC0F9C0F000055
:102350000400FC0FFC0F24084408FC0FB80F000019
:102360000400FC07FC0F040004000C001C0000002B
:102370000418FC3FFC0F04080C08F80FF03F00386D
:102380000400FC0FFC0F4408C4080C0E1C0C0000D9
:102390001C07BC0F4000F803F0074000BC0F180FEB
:1023A00000000C061C0C44084408FC0FB80F000089
:1023B0000400FC07FC0FC0006000FC0FF80F0000D9
:1023C0000400FC07FC0FC3006100FC0FF80F0000C5
:1023D0000400FC07FC0F4000E000BC0F180F0000D9
:1023E0000400FC07FC0F04000C00F80FF00F0000C5
:1023F000FC07F80F300060003C00F80FF00F000001
:102400000400FC07FC0F40004000FC0FF80F000028
:102410000000FC07FC0F04080C08F80FF00F000088
:102420000400FC07FC0F04000400FC0FFC0F00007C
:102430000400FC07FC0F84008400FC00F80000008E
:102440000000FC07FC0F040804080C0C180C00002A
:102450000C001C000400FC07FC0F04001C001C0006
:1024600000003C007C00C008800CFC07F803000062
:10247000F801F8030802FE07FC0F0802F803F00356
:102480001C07BC0F6000C000BC0F180F000000004C
:102490000000FC07FC0F00080008FC0FF83F0018C4
:1024A00000007C00FC0080008000FC0FF80F0000A2
:1024B000FC07FC0F0008F00F0008FC0FF80F0000ED
:1024C000FC07FC0F0008F00F0008FC0FF83F001895
:1024D0001C000C00FC07FC0F4408C00F800F00001C
:1024E000FC07FC0F4008C00F800F0000FC07F80F2E
:1024F0000000FC07FC0F4008C00F800F0000000028
:1025000000000C061C0C44084408FC0FF80F0000E7
:10251000FC07FC0F4000FC07FC0F0408FC0FF80F41
:1025200000003C067C0FC4018400FC0FF80F000083
:102530000000E007E00F20082008E007C00F0008B7
:102540000000F007F80F28086C08C60F800F000085
:102550002000E007E00FA0082009E00FC00E0000F7
:102560002000E007E00F200020006000E0000000F5
:102570002008E01FE00F20086008C00F801F00182F
:102580000000E007E00F20092009E00DC00900006D
:102590006004E00E0001C0070001E00E400C0000E6
:1025A00000006004600C20092009E00FC00E00004C
:1025B0002000E007E00F00018000E00FC00F0000E6
:1025C0002000E007E00F18018800E00FC00F0000B6
:1025D0002000E007E00F00018003E00E400C000047
:1025E0002000E007E00F20006000C00F800F000017
:1025F000E007C00F80010003E001C00F800F000062
:102600002000E007E00F00010001E00FC00F000014
:102610000000E007E00F20086008C00F800F0000F6
:102620002000E007E00F20002000E007E00F00009E
:102630002000E07FE0FF20082008E00FC00F00002E
:102640000000E007E00F20082008600CC00C00002C
:10265000000060002000E007E00F200060000000A4
:102660000000E003E00700CC0068E03FC01F00006E
:10267000E007E00F2008F81FF03F2008E00FC00F30
:1026800000006004E00E80010003E00E400C00003A
:102690000000E007E00F00080008E00FC03F00184E
:1026A0000000E001E00300020002E00FC00F0000A4
:1026B000E007E00F0008C00F0008E00FC00F0000A7
:1026C000E007E00F0008C00F0008E00FC03F00184F
:1026D000E0006000E007E00F2009000F000E00009E
:1026E000E007E00F0009000F000E0000E00FC00F30
:1026F0000000E007E00F0009000F000E00000000DE
:1027000000006004600C20092009E00FC00F0000E9
:10271000E007E00F0001E007E00F2008E00FC00F26
:102720000000E006E00F20012001E00FC00F0000D4
:102730000810000000000000000000000000000081
:102740000000000000007000F80DF80D700000009F
:10275000000000001C0020000000000020001C0001
:1027600000002002F80F200220022002F80F2002B1
:1027700000007006880888088E38880888083007A6
:10278000000060086004000200018000400C200C82
:1027900000000007B008480888084805300780088E
:1027A00000000000000020001C00000000000000ED
:1027B000000000000000E003100408080000000012
:1027C000000000000000000008081004E003000002
:1027D0000000A002C0018000F0078000C001A0023C
:1027E0000000800080008000E00380008000800006
:1027F0000000000000000020001C000C0000000091
:102800000000800080008000800080008000800048
:102810000000000000000000000C000C00000000A0
:1028200000000004000200018000400020001000B1
:102830000000F007080A0809880848082808F00777
:1028400000000000000020081008F80F0008000831
:1028500000001008080C080A080988084808300C0D
:10286000000010040808880888088808880870078D
:10287000000000018001400120011009F80F00094B
:102880000000F8048808880888088808880808076D
:102890000000E0079008880888088808800800077A
:1028A0000000180008000800080F880048003800E1
:1028B000000070078808880888088808880870075A
:1028C0000000700088088808880888088804F003D9
:1028D000000000000000000030063006000000008C
:1028E0000000000000000008300E3006000000006C
:1028F00000000000800040012002100408080000D1
:10290000000000004002400240024002400240023B
:1029100000000000000008081004200240018000B0
:102920000000300008000800880DC80D6800300065
:102930000000F00708088809C80B880B080AF00196
:102940000000C00F20011001080110012001C00F7C
:1029500000000808F80F88088808880888087007A9
:102960000000E003100408080808080808083006FA
:1029700000000808F80F0808080808081004E00319
:1029800000000808F80F88088808C8090808180C0B
:1029900000000808F80F88088800C801080018001F
:1029A0000000E003100408080809080908093007B6
:1029B0000000F80F80008000800080008000F80F89
:1029C0000000000000000808F80F080800000000E0
:1029D000000000060008000800080808F8070800C2
:1029E00000000808F80F880840012002180C0808A9
:1029F00000000808F80F0808000800080008000C8C
:102A00000000F80F10002000400020001000F80F18
:102A10000000F80F10002000400080000001F80FB7
:102A20000000E00310040808080808081004E00388
:102A300000000808F80F88088800880088007000E7
:102A40000000F0030804080408070804080CF01349
:102A500000000808F80F880888018802880C7008B0
:102A6000000030064808C8088808880908093006A8
:102A70000000180008000808F80F080808001800EF
:102A80000000F80700080008000800080008F80720
:102A90000000F80100020004000800040002F80130
:102AA0000000F80700080008800700080008F80781
:102AB0000000180C20024001800040012002180C88
:102AC0000000780080000009000F000980007800F5
:102AD0000000180C080A0809880848082808180C7B
:102AE000000000000000F80F0808080808080000AF
:102AF00000001000200040008000000100020004DF
:102B0000000000000000080808080808F80F00008E
:102B1000000010000800040002000400080010007B
:102B200000000020002000200020002000200020C5
:102B30000020000000000600080000000000000067
:102B400000000006400940094009400980070008CC
:102B500000000800F80F40084008400880080007FF
:102B600000008007400840084008400840088004F2
:102B7000000000078008400848084808F8070008D7
:102B800000008007400940094009400940098005CC
:102B900000008008F00F88080800080030000000DE
:102BA000000080134024402440244024801F400023
:102BB00000000808F80F0009800040004000800F66
:102BC00000000000000000004008D80F00080000CE
:102BD0000000000000180020002000204020D81F26
:102BE00000000808F80F00090001800240040008F6
:102BF00000000000000000000808F80F00080000B6
:102C00000000800F40008000000780004000800F1F
:102C100000004000800F4000400040004000800F56
:102C2000000080074008400840084008400880072E
:102C300000004020803F40244004400440048003C2
:102C4000000080034004400440044024803F4020B2
:102C500000004008C00F8008400040004000800194
:102C60000000800440094009400A400A400C8004EA
:102C70000000000040004000F80740084008000441
:102C80000000C0070008000800080008C00700088E
:102C900000000000C0030004000800080004C00396
:102CA0000000C00700080008000700080008C0076F
:102CB0000000400880040003000000038004400876
:102CC0000000C01300240024002400240014C00FBE
:102CD0000000C008400C400A400B4009C008400CEE
:102CE000000000008000800070070808080808083D
:102CF00000000000000000000000780F000000004D
:102D0000000000000808080808087007800080001C
:102D1000000010000800080010001000080000006B
:102D200000000007800440042004400480040007E1
:102D30000000C00F20011001080110012001C00F88
:102D400000000808F80F880888088808880818070D
:102D500000000808F80F88088808880888087007A5
:102D600000000808F80F080808000800080018000C
:102D700000000018E00F1008080808080808F80FFD
:102D800000180808F80F880888088808C809180C6F
:102D90000000380E40018000F80F80004001380E1E
:102DA00000001004180C8808880888088808700734
:102DB0000000F80F00040002000180004000F80F3E
:102DC0000000F80F00040202060184004000F80F22
:102DD00000000808F80F880840012002180C0808B5
:102DE00000000008E00F1000080008000800F80FBD
:102DF0000000F80F10002000400020001000F80F25
:102E00000000F80F80008000800080008000F80F34
:102E10000000E00310040808080808081004E00394
:102E20000000F80F08000800080008000800F80F6C
:102E300000000808F80F88088800880088007000E3
:102E40000000E00310040808080808081004200225
:102E50000000180008000808F80F0808080018000B
:102E60000000780480088008800880088004F80347
:102E70000000F0010802080AF00D080A0802F0013B
:102E80000000380C40028001000080014002380C34
:102E90000000F80700080008000800080008F80F04
:102EA0000018780080008000800080008000F80F0B
:102EB0000000F80F00080008E00F00080008F80FF5
:102EC0000000F80F00080008E00F00080008F80FE5
:102ED000001818000808F80F880880088008000704
:102EE0000000F80F80088008800800070000F80F35
:102EF00000000808F80F880880088008800800078C
:102F00000000100488080809880848089004E003B5
:102F10000000F80F80008000F00708080808F0079C
:102F200000007008880C880288018808F80F0808DB
:102F3000000000062009200920092009C007000818
:102F400000003007C8088808880888088808000733
:102F50000000F80F8408C408A40898088008000737
:102F60000000E00F20002000200020002000600072
:102F700000000018800F400820082008E00F00180B
:102F80000000C00720092009200920092009C004E9
:102F90000000600C80020001E00F00018002600C64
:102FA0000000400420082009200920092009C0064B
:102FB0000000E00F0004000200018000E00F0000AC
:102FC0000000E00F00040802100180004000E00F44
:102FD0000000E00F00010001000180024004200811
:102FE00000000008800F4000200020002000E00FBB
:102FF0000000E00F40008000000180004000E00F72
:103000000000E00F00010001000100010001E00FDD
:1030100000008003400420082008200840048003AA
:103020000000E00F20002000200020002000E00F22
:103030000000E00F20012001200120012001C0003C
:1030400000008003400420082008200820084004D5
:103050000000600020002000E00F20002000600041
:103060000000E00000090009000900050003E0017C
:103070000000C00320042024C03F20242004C003FB
:1030800000004008800400030000000380044008A2
:103090000000E0070008000800080008E00F001822
:1030A0000000E00100020002000200020002E00F46
:1030B0000000E00F00080008800F00080008E00F83
:1030C0000000E00F00080008800F00080008E00F73
:1030D000001860002008E00F200900090009000620
:1030E0000000E00F00090009000600000000E00FEA
:1030F0000000E00F000900090009000900090006AE
:103100000000400420082009200920094005800310
:103110000000E00F00010001C00720082008C007E0
:103120000000C00020092005200320012001E00F3D
:103130000000081000000000000000000000000077
:1031400000000000000000003800FC1938000000FA
:1031500000000000000000003C00000000003C00F7
:103160000000000000002002FC1F20022002FC1FC3
:1031700020020000000078188410877084108410EA
:103180000C0F00001C04220222019C1C4022202261
:10319000101C0000000F98106410C410240B1804B9
:1031A000001B000000000000000030000C000000C8
:1031B0000000000000000000E003180C04100220D2
:1031C00000000000000002200410180CE0030000C2
:1031D00000000000200240018000F0078000400154
:1031E00020020000800080008000F0078000800046
:1031F00080000000000000000060001800000000D7
:10320000000000000000800080008000800080003E
:103210008000000000000000000000180000000016
:103220000000000000000030000C80036000180067
:10323000060000000000F80F041C0413C410341032
:10324000F80F00000000081008100410FC1F001008
:103250000010000000001818041604118410441017
:10326000381800000000180C041084108410441159
:10327000380E00000003C002200218120412FC1FC6
:10328000001200000000FC084410441044104410D8
:10329000840F00000000F00F481044104410441048
:1032A000880F00001C0004000400041EC401340048
:1032B0000C0000000000380E4411841084104411EA
:1032C000380E0000000078088410841084108408F0
:1032D000F807000000000000000060180000000077
:1032E0000000000000000000006060180000000006
:1032F00000000000000080004001200210040808C7
:1033000004100000000020022002200220022002FF
:1033100020020000000004100808100420024001F0
:1033200080000000180004000400041B8400440016
:1033300038000000F80F0410E22312241224142491
:10334000F8070000001C841374020C027002801342
:10335000001C00000410FC1F841084108410441111
:10336000380E0000F00708080410041004100408C8
:103370001C0600000410FC1F0410041004100808B0
:10338000F00700000410FC1F841084108410C41186
:103390000C1800000410FC1F841084108400C40169
:1033A0000C000000F007080804108410841084103A
:1033B0009C1F00000410FC1F8410800080008410FB
:1033C000FC1F0000000004100410FC1F0410041077
:1033D00000000000000E0010001004100408FC079C
:1033E00004000000FC1F84104000A00014130C1CFB
:1033F000041000000410FC1F041000100010001046
:10340000001C0000FC1F08103000C0003000081035
:10341000FC1F00000410FC1F101060008003040457
:10342000FC1F0000F007080804100410041008082E
:10343000F00700000410FC1F841084008400840046
:1034400078000000F0070808041204140418082883
:10345000F04700000410FC1F8410840084008413D3
:10346000781C0000000078188410841084108410E8
:103470000C0F00001C0004000410FC1F04100400CA
:103480001C0000000400FC0F0410001000100410C9
:10349000FC0F00001C00E400000700180007E40017
:1034A0001C000000FC00041F0008E0070008041FC7
:1034B000FC0000000C183416400180004001341656
:1034C0000C1800000C003400C010001FC0103400A5
:1034D0000C00000000000C18041684114410341075
:1034E0000C18000000000000FE3F02200220022015
:1034F0000000000000000600180060008003000CBF
:10350000003000000000022002200220FE3F0000E8
:103510000000000010000800040002000400080081
:10352000100000000040004000400040004000400B
:1035300000400040000000000600180000000000ED
:1035400000000000400E2011201120112009C01F92
:10355000001000000410FC1F400820102010201054
:10356000C00F00000000C00F2010201020102010FD
:10357000600C0000C00F2010201020104408FC1F19
:10358000001000000000C00F201120112011201198
:10359000C0090000000040104010F81F4410441003
:1035A00044000000C0272048204820484044E03F15
:1035B000200000000410FC1F40102000200020000C
:1035C000C01F00000000001020102410E41F001095
:1035D0000010000000300040004020402420E41F84
:1035E000000000000410FC1F00020001A002601493
:1035F000201800000000001004100410FC1F001030
:1036000000100000E01F40102000C01F200020100C
:10361000C01F00002010E01F4010200020002010DC
:10362000C01F00000000C00F20102010201020102C
:10363000C00F00002040E07F404420082008200800
:10364000C0070000C0072008200820084044E07F91
:103650002040000000002010E01F4010200020004B
:10366000600000000000C01820112011201220125C
:10367000600C000020002000F80F20102010201007
:10368000000000002000E00F0010001000102008D3
:10369000E01F0000E0002003000C0010000C2003DD
:1036A000E0000000E003201C000880070008201C48
:1036B000E003000020106018A0140003A01460189C
:1036C00020100000E0002043004C0030000C2003DC
:1036D000E000000000006018201420122011A0104B
:1036E000601800000000800080007C1F0220022083
:1036F000000000000000000000007C1F000000002F
:10370000000000000000022002207C1F80008000DA
:10371000000000000C00020002000C00100010006D
:103720000C000000001C0013C0103010C01000136B
:10373000001C0000001C841374020C027002801331
:10374000001C00000410FC1F4410441044108408A6
:103750000C0700000410FC1F841084108410441116
:10376000380E00000410FC1F0410041004000400B4
:103770000C0000000070041EC4113C100410FC1F5B
:10378000047000000410FC1F841084108410C41105
:103790000C1800000C1834164001FC1F40013416B0
:1037A0000C1800001C0C08108410841084104411A4
:1037B000380E00000410FC1F041280014410FC1F8E
:1037C000041000000410FC1F051281014510FC1FAD
:1037D00004100000FC1F84104000A00014130C1CF7
:1037E0000410000000100010040FFC000410FC1F67
:1037F00004100000FC1F08103000C000300008104A
:10380000FC1F00000410FC1F841080008000841046
:10381000FC1F0000F007080804100410041008083A
:10382000F00700000410FC1F041004000410FC1F2B
:10383000041000000410FC1F841084008400840025
:1038400078000000F00708080410041004100408B1
:103850001C0600001C0004000410FC1F04100400DF
:103860001C0000000C083410C00C0003C000340021
:103870000C000000F00008010412FC1F04120801F3
:10388000F00000000C18341640018000400134168E
:103890000C1800000410FC1F041000100410FC1F82
:1038A000047000000400FC00040100010411FC1F6E
:1038B000041000000410FC1F0410C01F0410FC1FA3
:1038C000041000000410FC1F0410C01F0410FC1F93
:1038D000047000003C100410FC1F84108010801045
:1038E000000F00000410FC1F84108010000F041053
:1038F000FC1F00000410FC1F84108010801080103A
:10390000000F0000300408080410C4118410880857
:10391000F00700000410FC1F8000F80F04100410D2
:10392000F80F000078108418840684018410FC1FAE
:1039300004100000400E2011201120112009C01F8A
:10394000001000000000F80F241024102410241090
:10395000C20F00000000E01F2011201120112011D3
:10396000C00E00002010E01F2010200020002000CA
:10397000600000000070201CE01320102010E01FE9
:10398000207000000000C00F201120112011201114
:10399000C0090000201060188004E01F8004601837
:1039A000201000000000C00820102010201120115D
:1039B000C00E00002010E01F201400022011E01FA4
:1039C000201000002010E01F281408022811E01F1A
:1039D000201000002010E01F000200018006601887
:1039E000201000000010201CE00320002010E01F29
:1039F00020100000E01F40108001000680014010F0
:103A0000E01F00002010E01F201200022012E01F23
:103A1000201000000000C00F2010201020102010E7
:103A2000C00F00002010E01F201020002010E01F19
:103A3000201000002040E07F40442008200820089B
:103A4000C00700000000C00F201020102010201020
:103A5000600C0000600020002010E01F20102000FB
:103A600060000000E0002043004C0030000C200308
:103A7000E0000000C00F20102850F87F28502010D0
:103A8000C00F000020106018A0140003A0146018DC
:103A9000201000002010E01F201000102010E01F58
:103AA000207000002000E001200200022012E01F30
:103AB000201000002010E01F2010001F2010E01F29
:103AC000201000002010E01F2010001F2010E01F19
:103AD00020700000E0002010E01F201100110011F4
:103AE000000E00002010E01F20110011000E201019
:103AF000E01F00002010E01F201100110011001134
:103B0000000E00000000400820102011201120119C
:103B1000C00F00002010E01F0002C00F2010201076
:103B2000C00F00000000C010201920062012E01F66
:103B3000201000000810000000000000000000003D
:103B4000000000000000000000007800FC33FC339F
:103B500078000000000000000E001E0000000000C1
:103B60001E000E0000002002F80FF80F2002F80FD0
:103B7000F80F20020000700CF81C88108E708E70F8
:103B8000181F300E0000300C300600038001C0000A
:103B9000600C300C00000007980FFC18C418380D9A
:103BA000000600050000000010001E000E000000CE
:103BB00000000000000000000000C003F00F181813
:103BC0000C3000000000000000000C301818F00F4E
:103BD000C003000000008000A002E003C001C0019B
:103BE000E003A0028000000080018001E007E00700
:103BF000800180010000000000000020003C001C4B
:103C0000000000000000800180018001800180012F
:103C1000800180010000000000000000000C000C8A
:103C2000000000000000000C000600038001C0003E
:103C3000600030000000F007F80F0C1884110C1819
:103C4000F80FF0070000000010101810FC1FFC1FF8
:103C5000041000100000181C1C1E04138411C41052
:103C60007C183818000008080C1884108410841080
:103C7000FC1F780F00008001C00160013011F81FA7
:103C8000FC1F001100007C087C18441044104410F4
:103C9000C41F840F0000F00FF81F4C104410441094
:103CA000C01F800F00000C000C00041F841FC40004
:103CB0007C003C000000B80FFC1F4410441044106E
:103CC000FC1FB80F00007800FC10841084108418CA
:103CD000FC0FF8070000000000000000600C600C02
:103CE000000000000000000000000020603C601C9C
:103CF00000000000000000008000C00160033006EA
:103D0000180C0808000000002001200120012001FB
:103D100020012001000000000808180C3006600394
:103D2000C00180000000000018001C00841BC41BA0
:103D30007C0038000000F0070808C4132413E411C5
:103D40000803F0010000E01FF01F18020C0204023B
:103D5000FC1FFC1F00000410FC1FFC1F84108410BB
:103D6000FC1F780F0000F007F80F0C180410041067
:103D700008183C0C00000410FC1FFC1F04100C1061
:103D8000F80FF00700000410FC1FFC1F8410E41360
:103D900004101C1C00000410FC1FFC1F8410C40332
:103DA0000C003C000000F007F80F0C180410041180
:103DB000080F3C1F0001FC1FFC1F800080008000DA
:103DC000FC1FFC1F0000000000000410FC1FFC1F73
:103DD000041000000000000C001C00100410FC1F68
:103DE000FC0F040000000410FC1FFC1FC000B803FF
:103DF000041F0C1C00000410FC1FFC1F041000100A
:103E00000018001E0000FC1FF81F60008003600007
:103E1000F81FFC1F0000FC1FFC1F7000C001000702
:103E2000FC1FFC1F0000F80FFC1F041004100410FE
:103E3000FC1FF80F00000410FC1FFC1F84108400FE
:103E4000FC0078000000F80FFC1F04100418047038
:103E5000FC7FF84F00000410FC1FFC1F840084014D
:103E6000FC1F781E0000381E7C084410C41084100B
:103E7000881F1C0F000000003C000410FC1FFC1FEA
:103E800004103C000000FC0FFC1F0010001000108C
:103E9000FC1FFC0F0000FC03FC07000C0018000CCA
:103EA000FC07FC030000FC07FC1F001C0007001CB3
:103EB000FC1FFC0700000C1C3C1FF003C001F003BA
:103EC0003C1F0C1C000000007C00FC00801F801FB9
:103ED000FC007C0000003C1E0C1F8411C410641008
:103EE0003C181C1E000000000000FC1FFC1F0410FA
:103EF00004100000000038007000E000C0018003E2
:103F00000007000E001C0000000004100410FC1F3D
:103F1000FC1F0000000008000C0006000300060063
:103F20000C000800000000200020002000200020DD
:103F30000020002000200000000003000700040013
:103F4000000000000000000FA01FA010A010E00F54
:103F5000C01F001000000410FC1FFC1F20102010C8
:103F6000E01FC00F0000C00FE01F20102010201025
:103F70006018400C0000C00FE01F20102410FC0F40
:103F8000FC1F00100000C00FE01F201120112011A5
:103F9000E019C00900004010F81FFC1F44100C007D
:103FA000180000000000C027E06F20482048C07FB4
:103FB000E03F200000000410FC1FFC1F4000200018
:103FC000E01FC01F0000000000002010EC1FEC1FCD
:103FD0000010000000000000003000700040204091
:103FE000EC7FEC3F00000410FC1FFC1F8001C003AD
:103FF000601E201C0000000000000410FC1FFC1FBD
:10400000001000000000E01FE01F6000C00F600013
:10401000E01FC01F00002010E01FC01F2000200074
:10402000E01FC01F0000C00FE01F20102010201054
:10403000E01FC00F00002040E07FC07F2050201014
:10404000E01FC00F0000C00FE01F20102050C07FF5
:10405000E07F204000002010E01FC01F6010200003
:10406000E000C0000000400CE01CA0112011201353
:10407000601E400C000020002000F80FFC1F2010E4
:104080002018000C0000E00FE01F00100010E00FEF
:10409000E01F001000000000E007E00F001800180B
:1040A000E00FE0070000E007E00F001C8007001CA5
:1040B000E00FE00700002018601CC0078003C00765
:1040C000601C20180000E027E06F00480048E07FF7
:1040D000E03F00000000601C601E2013A011E010F3
:1040E0006018201C0000000080008000F80F7C1F7A
:1040F0000410041000000000000000003C1F3C1FE2
:104100000000000000000000041004107C1FF80FE5
:1041100080008000000008000C0004000C00080073
:104120000C00040000008007C00760043004600435
:10413000C00780070000E01FF01F18020C020402F5
:10414000FC1FFC1F00000410FC1FFC1F4410441047
:10415000C41F9C0F00000410FC1FFC1F841084105F
:10416000FC1F780F00000410FC1FFC1F041004004B
:1041700004003C00000000700418FC170410041038
:10418000FC1FFC1F00700410FC1FFC1F8410E413B4
:1041900004101C1C00000C1CFC1FC000FC1FC000F5
:1041A000FC1F0C1C000008080C18841084108410DC
:1041B000FC1F780F0000FC1FFC1F0003C000300034
:1041C000FC1FFC1F0000FC1FFC1F0303C200330088
:1041D000FC1FFC1F00000410FC1FFC1FC000F803A4
:1041E000041F0C18000000180410FC1F0400040039
:1041F000FC1FFC1F0000FC1FF81F6000C0036000D4
:10420000F81FFC1F0000FC1FFC1F800080008000C6
:10421000FC1FFC1F0000F80FFC1F0410041004100A
:10422000FC1FF80F0000FC1FFC1F0400040004002A
:10423000FC1FFC1F00000410FC1FFC1F84108400E6
:10424000FC0078000000F007F80F0C1804100410B0
:1042500008183C0C000000001C000410FC1FFC1F90
:1042600004101C0000007C00FC08801880108010E6
:10427000FC1FFC0F0000F001F8030A12FE1FFE1FD6
:104280000A12F803F0010C1C3C1FF003C000F003FD
:104290003C1F0C1C0000FC1FFC1F00100010FC1F2A
:1042A000FC1F007000007C00FC008000800080008B
:1042B000FC1FFC1F0000FC1FFC1F0010FC1FFC1F4C
:1042C0000010FC1FFC1FFC1FFC1F0010FC1FFC1F2C
:1042D0000010FC3FFC7F0C000410FC1FFC1F44106E
:1042E000C01F800F0000FC1FFC1F4010C01F800F6C
:1042F0000000FC1FFC1F0410FC1FFC1F441040109A
:10430000C01F800F0000180C0C180410E413841058
:10431000FC1FF80F0000FC1FFC1F8000F80FFC1FA3
:104320000410FC1FF80F0010781FFC1F840084008D
:10433000FC1FFC1F0410000FA01FA010A010E00F16
:10434000C01F001000000000F00FF81F48104810B8
:10435000CC1F860F00002010E01FE01F201120114D
:10436000E01FC00E000000002010E01FE01F201022
:104370002000E00000000070003FC01F601020100F
:10438000E01FE03F0070C00FE01F2011201120113E
:10439000E019C00900006018E01F0001E01F0001E3
:1043A000E01F601800000000400860182010201175
:1043B000E01FC00E0000E01FE01F0004000200012B
:1043C000E01FE01F0000E01FE81F180410021801A2
:1043D000E81FE01F00002010E01FE01F0001C003E5
:1043E000201E601800000010801FC01F6000200009
:1043F000E01FE01F0000E01FE01F8000000F8000B2
:10440000E01FE01F0000E01FE01F000100010001AD
:10441000E01FE01F0000C00FE01F20102010201040
:10442000E01FC00F0000E01FE01F20002000200060
:10443000E01FE01F00002040E07FC07F20502010E0
:10444000E01FC00F0000C00FE01F20102010201040
:104450006018400C00000000E0002010E01FE01F8A
:104460002010E0000000E027E06F00480048E07FF7
:10447000E03F00000000800FC01F5050F07FF07F31
:104480005050C01F800F2018601CC0078003C00759
:10449000601C20180000E01FE01F00100010E01F4B
:1044A000E01F00700000E001E00300020002E01FD6
:1044B000E01F00000000E01FE01F0010E01F0010E0
:1044C000E01FE01F0000E01FE01F0010E01F0010D1
:1044D000E01FE03F007060002010E01FE01F20118F
:1044E0000011001F000EE01FE01F0011001F000E52
:1044F000E001E01F00002010E01FE01F201100116C
:10450000001F000E0000000040086018201120115C
:10451000E01FC00F0000E01FE01F0002C00FE01FFF
:104520002010E01FC00FC011E01B200E2002E01F72
:10453000E01F20100000080800000000000000003C
:1045400000005F00000000000403000403000000FE
:10455000147F14147F140000042A7F2A7F2A10007D
:1045600042201008044200000020544A5A245000FF
:104570000004030000000000001C224100000000B5
:104580000041221C00000000082A1C7F1C2A080091
:104590000808087F0808080000008060000000008C
:1045A000080808080808000000004000000000009B
:1045B00040201008040201003E61514945433E007D
:1045C00040427F4040000000426151494562000086
:1045D000224149494936000018141211517F5000F8
:1045E00027454545453900003E4545454545380088
:1045F000030161110905030036494949494936005B
:104600000E51515151513E00000044000000000085
:104610000080640000000000081422410000000037
:104620002424242424240000000041221408000033
:1046300002015109090600003E41495555595E00E5
:104640007C121111127C0000417F49494949360012
:104650003E41414141412200417F414141413E00B3
:10466000417F49495D416300417F49091D010300C4
:104670003E414141513172007F080808087F000027
:1046800000417F4100000000304040413F010000F8
:10469000417F080808146300417F414040406000AA
:1046A0007F02041804027F007F02040810207F00AC
:1046B0003E41414141413E00417F4909090906000F
:1046C0003E41416141BE0000417F09091929460070
:1046D00026494949493200000301417F4101030055
:1046E0003F40404040403F001F204040201F00000E
:1046F0007F40201820407F006314080808146300DE
:10470000070848784808070043615149454361005C
:10471000007F4141410000000102040810204000D8
:10472000004141417F00000008040201020408002A
:104730004040404040404040000003040000000072
:1047400038444444287C4000417F49484848300070
:10475000384444444428000030484848497F4100D8
:104760003854545454180000487E4909020000008F
:1047700098A4A4A4A4780400417F0404040478004D
:1047800000447D4000000000608080847D000000C7
:10479000417F10101028440000417F4000000000BD
:1047A0007C040438040478007C08040404047800C1
:1047B000384444444444380084FCA424242418008D
:1047C00018242424A4FC8400447C484404040800E5
:1047D000485454545424000000043F444020000036
:1047E0003C404040207C40001C204040201C0000F9
:1047F0003C40403840403C00442810101028440001
:104800009CA0A0A0A07C00004C4464544C64000018
:104810000808364141000000000000770000000059
:1048200000414136080800000202010102020101B4
:1048300070484442444870007C12111111117F00ED
:104840007F494949494930007F494949494936002A
:104850007F01010101010100C07E4141417FC00093
:104860007F494949494941006314087F081463009E
:1048700022414149494936007F20100804027F0047
:104880007F20110905027F007F08080814224100DB
:104890007C02010101017F007F02041804027F00F5
:1048A0007F08080808087F003E41414141413E0021
:1048B0007F01010101017F007F111111111F0E0005
:1048C0003E414141414122000101017F01010100BE
:1048D0002748484848483F000E11117F11110E002B
:1048E00063140808081463007F404040407FC00004
:1048F0000708080808087F007F40407F40407F008D
:104900007F40407F40407FC0017F4848484830009A
:104910007F48484830007F007F484848484830007A
:104920002241494949493E007F08083E41413E0035
:104930004E51311111117F0020545454543840000D
:10494000384C4A4A4A4A31007C5454545454280042
:104950007C04040404040400C0784444447CC00083
:1049600038545454545C18004428107C10284400D7
:1049700028444444545428007C201008047C00003F
:104980007C201109047C00007C10101010284400C9
:104990007008040404047C007C08102010087C00CB
:1049A0007C10101010107C003844444444443800FB
:1049B0007C04040404047C007C24242424241800A3
:1049C00038444444444428000404047C040404009F
:1049D0004C50505050503C001824247E2424180081
:1049E00044281010102844007C404040407CC00007
:1049F0000C10101010107C007C40407C40407C006B
:104A00007C40407C40407CC0047C50505050200092
:104A10007C50505020007C007C5050505050200062
:104A200044445454545438007C10103844443800E2
:104A30004854341414147C000808000000000000DE
:104A400000000000065F5F0600000003070000078B
:104A50000300147F7F147F7F1400002C6ECBD3766D
:104A60003400006333180C6663003A7F497F366078
:104A700040000000040703000000001C3E634141A9
:104A8000000000004141633E1C00002A2A1C1C2A31
:104A90002A000008083E3E08080000004070300070
:104AA0000000000808080808080000000060600016
:104AB00000006030180C060301003E7F5149457F1D
:104AC0003E000004467F7F400000627359494D4715
:104AD000620022634949497F3600181C16527F7FC5
:104AE00040002F6F4949497931003C7E4B49497953
:104AF0003000030301797D070300367F4949497F70
:104B00003600064F4949693F1E00000000666600F6
:104B10000000000040763600000000081C366341AB
:104B20000000001414141414140000004163361C17
:104B30000800000203696D0702003E7F4159595F7A
:104B40000E00787C1613167C7800417F7F49497FE0
:104B500036001C3E634163361400417F7F41637F12
:104B60003E00417F7F495D416300417F7F491D01D8
:104B700003001C3E6349597336007F7F0808087F95
:104B80007F000000417F7F4100002060417F3F01A6
:104B90000000417F7F081C776300417F7F414060B8
:104BA00070007F7F0E1C0E7F7F007F7F060C187FBA
:104BB0007F003E7F4141417F3E00417F7F49090F99
:104BC00006003E7F4151317F5E00417F7F49197F62
:104BD000660022674D49597322000003417F7F41DF
:104BE00003003F7F4040407F3F000F1F3060301F79
:104BF0000F003F7F601C607F3F0063771C081C77BD
:104C0000630000074F78784F0700637159494D479B
:104C10006300007F7F414141000003060C183060B3
:104C2000400000004141417F7F00080C0603060C54
:104C30000800404040404040404000000103020066
:104C40000000207454543C784000017F7F444C782D
:104C50003000387C4444446C280030784C453F7F19
:104C60004000387C5454545C08000000487E7F4962
:104C7000030018BCA4A4F87C0400417F7F08047CD6
:104C800078000000487B7B40000040C088FB7B0030
:104C90000000417F7F10386C44000000417F7F405E
:104CA00000007C7C0C380C7C7800047C7804047C4C
:104CB0007800387C4444447C380084FCF8A4243CCC
:104CC0001800183C24A4F8FC8400447C784C040CA4
:104CD0000800085C54545474200004043E7F44646B
:104CE00020003C7C40403C7C40001C3C60603C1C04
:104CF00000003C7C603C607C3C00446C3810386CAC
:104D000044001CBCA0A0A0FC7C00446474545C4C17
:104D100044000008083E774141000000007777001A
:104D20000000004141773E0808000203010302032E
:104D3000010000787C46467C7800787C1613167C4F
:104D40007800417F7F49497B3300417F7F49497F1C
:104D50003600417F7F4101010300C0FE7F417FFF9C
:104D6000C000417F7F495D41630073771C7F1C77E2
:104D7000730022634149497F36007F7F30180C7FE2
:104D80007F007F7F30190C7F7F00417F7F081C7779
:104D90006300787C0603017F7F007F7F0E1C0E7FFF
:104DA0007F007F7F0808087F7F003E7F4141417F71
:104DB0003E007F7F0101017F7F00417F7F49090F16
:104DC00006003E7F4141417332000003417F7F4135
:104DD0000300276F4848487F3F000E1F517F511F37
:104DE0000E0063771C081C7763007F7F40407FFFC5
:104DF0008000070F0808087F7F007F7F407F407F8B
:104E00007F007F7F407F407FFF8003017F7F447C66
:104E100038007F7F44447C387F7F417F7F494878DA
:104E200030002263415D497F3E007F7F083E7F4125
:104E30007F3E40767F09097F7F41207454543C783F
:104E40004000003C7E47457D3800447C7C54547CC7
:104E50002800447C7C4404040C00C0F87C447CFCA6
:104E6000C000387C5454545C08006C7C107C107C6E
:104E70006C00286C4454547C28007C7C6030187C86
:104E80007C007C7C6133197C7C00447C7C10386C19
:104E900044006070180C047C7C007C7C1830187C0A
:104EA0007C007C7C1010107C7C00387C4444447C6A
:104EB00038007C7C0404047C7C0084FCFCA4243C3E
:104EC0001800387C4444446C2800000C447C7C442A
:104ED0000C001CBCA0A0A0FC7C00183CA4FCA43CC2
:104EE0001800446C3810386C44007C7C4040407C96
:104EF000FC800C1C1010107C7C007C7C407C407C76
:104F00007C007C7C407C407CFC800C447C7C487831
:104F100030007C7C505070207C7C447C7C545070F1
:104F20002000286C4454547C38007C7C10387C442D
:104F30007C3840687C34147C7C4406080000000007
:104F400000000000BE000000000E000E000028FE61
:104F500028FE28004854FE542400985820D0C80049
:104F60006C92AA44A000000A0600000000384482A7
:104F7000000000824438000028107C102800101027
:104F80007C1010000000A0600000202020202000E5
:104F900000C0C00000004020100804007CA2928ADB
:104FA0007C000084FE80000084C2A2928C004282B9
:104FB0008A966200302824FE20004E8A8A8A720077
:104FC00078949292600002E2120A06006C92929229
:104FD0006C000C9292523C00006C6C00000000AC23
:104FE0006C0000001028448200002828282828008F
:104FF0000082442810000402A2120C006492F28283
:105000007C00FC222222FC00FE9292926C007C82A8
:1050100082824400FE8282443800FE929292820094
:10502000FE12121202007C829292F400FE10101006
:10503000FE000082FE8200004080827E0200FE10A0
:1050400028448200FE8080808000FE041804FE0058
:10505000FE081020FE007C8282827C00FE1212126A
:105060000C007C82A242BC00FE1232528C008C9258
:10507000929262000202FE0202007E8080807E0028
:105080003E4080403E007E8070807E00C628102812
:10509000C6000E10E0100E00C2A2928A860000FE2A
:1050A00082820000040810204000008282FE00007E
:1050B0000804020408008080808080000002040848
:1050C000000040A8A8A8F000FE90888870007088B2
:1050D0008888400070888890FE0070A8A8A83000DA
:1050E00010FC1202040018A4A4A47C00FE100808FE
:1050F000F0000088FA8000004080887A0000FE20DE
:10510000508800000082FE800000F8083008F0009F
:10511000F8100808F000708888887000F82828289F
:10512000100010282830F800F8100808100090A887
:10513000A8A84000087E8880400078808040F80061
:105140003840804038007880608078008850205057
:10515000880018A0A0A0780088C8A898880000102F
:105160006C8200000000FE00000000826C10000055
:10517000100810201000FFFFFFFFFF00F82422247A
:10518000F800FE9292926200FE9292926C00FE02F1
:1051900002020200C07E427EC000FE929292820015
:1051A000EE10FE10EE00448292926C00FE20100879
:1051B000FE00FC201208FC00FE1028448200807CC7
:1051C0000202FE00FE041804FE00FE101010FE0095
:1051D0007C8282827C00FE020202FE00FE1212121B
:1051E0000C007C82828244000202FE0202000E90C9
:1051F00090907E001C22FE221C00C6281028C600AB
:105200007E40407EC0000E101010FE00FE80FC802C
:10521000FE007E407E40FE0002FE90906000FE9008
:105220006000FE0000FE90906000448292927C003C
:10523000FE107C827C008C523212FE0040A8A8A88E
:10524000F000789494946200F8A8A8500000F80840
:1052500008180000C0784878C00070A8A8A83000DE
:10526000D820F820D8000088A8A85000F8402010C6
:10527000F800F8422412F800F820508800008070EE
:105280000808F800F8102010F800F8202020F80096
:10529000708888887000F8080808F800F82828281E
:1052A00010007088888800000808F808080018A016
:1052B000A0A078001028F8281000885020508800FE
:1052C00078404078C00018202020F800F880F8804E
:1052D000F80078407840F80008F8A0A04000F8A056
:1052E0004000F80000F8A0A040005088A8A8700076
:1052F000F8207088700090A86828F80000030C0F50
:1053000030333C3FC0C3CCCFF0F3FCFF11241FBEB1
:10531000CFEFD8E0DEBFCDBF23E0A4E0B1E001C015
:105320001D92A53CB207E1F711E0A0E0B1E0E6E391
:10533000FFE602C005900D92A430B107D9F70E9494
:10534000B32E0C9499370C9400000F931F93CF93B6
:10535000DF93EC0111E088819981892B09F070C0FD
:105360000E945F322FE149E760E080E00E94213433
:105370001093540162E571E086E493E00E94673780
:105380008AE00E94782F682F70E08AE790E00E9400
:10539000A1366F5F60935301E62FF0E0EB5CFE4FA8
:1053A0001082109234019091340181E0890F809332
:1053B000340190933301E6E4F3E001900020E9F733
:1053C0003197E654F34090E08E179F0710F010924B
:1053D0003401109232015091530186E493E04091E0
:1053E0003201451700F5A091330121E02A0F2093E7
:1053F0003301E42FF0E0EB5CFE4FB0E0AA5BBC4F62
:105400003C913083FC0101900020E9F73197E6548C
:10541000F34030E02E173F0710F0109233014F5F3A
:1054200040933201DCCF00E025E331E04AE060E068
:1054300080E00E942D348AE590E00E943D3010E02B
:1054400080E29AE2998388831111ADCF81E0DF91E8
:10545000CF911F910F910895CF93DF93EC0121E03D
:10546000E881F981309709F00994259A1092080192
:105470000BC089E39AE299838883222339F18091D2
:1054800008018F5F8093080180910801823098F4B1
:105490002D9A85E090E00E943D3020E08EE49AE273
:1054A00099838883222391F02D988FE090E00E94C9
:1054B0003D3020E0DECF8CE390E00E943D3020E0E4
:1054C00080E69AE2998388832111D0CF81E0DF9131
:1054D000CF9108958F5F803819F0882319F00895CF
:1054E00080EC089580E208958F929F92AF92BF92D0
:1054F000CF92DF92EF92FF920F93CF93DF93EC0165
:1055000021E0E881F981309709F0099486E89AE270
:105510009983888380915401882309F417C46AEF22
:1055200070E086E493E00E9467372FE149E768E086
:1055300080E00E94213484E10E94782F682F70E07F
:105540008AE790E00E94A136645060933101E62F13
:10555000F0E0ED5EFE4F108200E024EF30E04AE024
:105560006CE080E00E943C342EEE30E04AE066E1E0
:1055700080E00E943C3480E2809312018FB7F8945F
:1055800040E45FE160E070E04093B0035093B1030A
:105590006093B2037093B3038FBFE0901201D09079
:1055A00031018E2DF12CFD1448F4EF2DF0E0ED5E6D
:1055B000FE4F80830E946A2AF394F5CF80931101F5
:1055C000F09210018E2D0E946A2A8093120100E051
:1055D00023E131E044E16CE08EE10E942D3420E0D3
:1055E00080EF9AE299838883211102C081E0AFC3E2
:1055F00000E023E131E046E166E18EE10E942D34D6
:1056000082E390E00E943D3020E085E09BE29983B8
:105610008883222359F34091B0035091B1036091E4
:10562000B2037091B303452B462B472B09F0B5CF3E
:105630002FE149E768E080E00E9421348FB7F894B9
:105640001092B4031092B5031092B6031092B703F0
:105650008FBF83E20E94782F682F70E08AE790E086
:105660000E94A136645060933101E62FF0E0ED5EB8
:10567000FE4F108286E080930F0180E2809312013A
:105680008FB7F89440E157E260E070E04093B003D8
:105690005093B1036093B2037093B3038FBFE09054
:1056A0001201D09031018E2DF12CFD1448F4EF2D14
:1056B000F0E0ED5EFE4F80830E946A2AF394F5CFFE
:1056C00080931101F09210018E2D0E946A2A80931E
:1056D00012014091B4035091B5036091B6037091EB
:1056E000B703452B462B472B09F049C08FB7F894D9
:1056F00044EF51E060E070E04093B4035093B50391
:105700006093B6037093B7038FBF20910F012F5F93
:10571000822F90E007971CF420930F0102C0109293
:105720000F0180910F018230B1F040F4882379F0AD
:105730008130E9F400E02EED30E01CC0843099F0B7
:1057400070F08530A1F400E02EEB30E013C000E0F3
:1057500026EE30E00FC000E026ED30E00BC000E0A8
:105760002EEC30E007C000E026EC30E003C000E0A3
:1057700026EB30E04AE060E180E00E943C3480911A
:105780000F01823081F030F4882359F0813099F490
:1057900084E20EC0843059F040F0853061F482E339
:1057A00007C083E205C086E203C085E201C088E24B
:1057B00080930E010AC09AE090930E01863028F083
:1057C00003E023E131E04AE005C000E023E131E0FD
:1057D00040910E016CE08AE20E942D3482E390E059
:1057E0000E943D3020E083EF9BE29983888322234F
:1057F00009F4FCCE4091B0035091B1036091B20323
:105800007091B303452B462B472B09F048CF66EA2E
:1058100070E086E493E00E9467372FE149E768E093
:1058200080E00E94213482E390E00E943D3020E03D
:1058300088E19CE299838883222309F4D7CE1092D1
:105840000D0105C080910D018F5F80930D01809146
:105850000D01833008F058C0813009F451C0823006
:1058600009F450C080E00E9442348FB7F89444EFAE
:1058700051E060E070E04093B0035093B103609357
:10588000B2037093B3038FBF109210014AE7C42E86
:10589000D12CE12CF12C57E1852E912CA12CB12C8F
:1058A0004091B0035091B1036091B2037091B30382
:1058B000452B462B472B31F20E945937A701960101
:1058C0000E94B53660930C010E945937A5019401DE
:1058D0000E94B536675F60930B0180910C010E94B6
:1058E0004534809110018F5F809310018770C1F65D
:1058F00020E089E79CE2998388832111C7CF76CE87
:1059000081E0B1CF82E0AFCF66E970E086E493E05A
:105910000E94673710920D0105C080910D018F5FC5
:1059200080930D0180910D01843008F095C08111A4
:1059300080C02FE149E768E080E00E94213480E0E8
:105940000E94423480910D01833038F70E9459370C
:105950002AE730E040E050E00E94B53660930A014B
:105960000E94593727E130E040E050E00E94B53610
:10597000675F609309018FB7F89440E951E060E0F8
:1059800070E04093B0035093B1036093B2037093FF
:10599000B3038FBF4091B0035091B1036091B20344
:1059A0007091B303452B462B472B09F4B6CF80915A
:1059B0000A0180930C018091090180930B010E94E0
:1059C00059372AE730E040E050E00E94B536609356
:1059D0000A010E94593727E130E040E050E00E9480
:1059E000B53629E0260F2093090140910A01609104
:1059F0000B0180910C010E94AB348AE090E00E9480
:105A00003D3020E082E09DE299838883222309F4DF
:105A1000EDCD80910D01823008F4BCCF20910901B9
:105A200040910A0160910B0180910C010E94AB34FE
:105A3000B1CF813049F401E02FE149E769E080E02E
:105A40000E94983581E07CCF2FE149E768E080E053
:105A50000E94213482E074CF67E770E086E493E02F
:105A60000E94673782E00E9442342FE149E768E0F4
:105A700080E00E9421348FB7F89444EF51E060E059
:105A800070E04093B0035093B1036093B2037093FE
:105A9000B3038FBF4091B0035091B1036091B20343
:105AA0007091B303452B462B472B09F442C00E944B
:105AB00059372AE7822E912CA12CB12CA5019401F3
:105AC0000E94B53660930C010E94593737E1C32E0E
:105AD000D12CE12CF12CA70196010E94B536675F0D
